{
  "contractName": "Coin2Cash",
  "abi": [
    {
      "anonymous": false,
      "inputs": [
        {
          "indexed": false,
          "internalType": "uint256",
          "name": "id",
          "type": "uint256"
        }
      ],
      "name": "BuyerAdded",
      "type": "event"
    },
    {
      "anonymous": false,
      "inputs": [
        {
          "indexed": false,
          "internalType": "uint256",
          "name": "id",
          "type": "uint256"
        }
      ],
      "name": "BuyerRemoved",
      "type": "event"
    },
    {
      "anonymous": false,
      "inputs": [
        {
          "indexed": false,
          "internalType": "uint256",
          "name": "id",
          "type": "uint256"
        }
      ],
      "name": "SellerAdded",
      "type": "event"
    },
    {
      "anonymous": false,
      "inputs": [
        {
          "indexed": false,
          "internalType": "uint256",
          "name": "id",
          "type": "uint256"
        }
      ],
      "name": "SellerRemoved",
      "type": "event"
    },
    {
      "constant": true,
      "inputs": [
        {
          "internalType": "uint256",
          "name": "",
          "type": "uint256"
        }
      ],
      "name": "buyers",
      "outputs": [
        {
          "internalType": "string",
          "name": "latitude",
          "type": "string"
        },
        {
          "internalType": "string",
          "name": "longitude",
          "type": "string"
        },
        {
          "internalType": "string",
          "name": "description",
          "type": "string"
        },
        {
          "internalType": "string",
          "name": "title",
          "type": "string"
        },
        {
          "internalType": "string",
          "name": "cityName",
          "type": "string"
        },
        {
          "internalType": "uint256",
          "name": "lastAccess",
          "type": "uint256"
        },
        {
          "internalType": "uint256",
          "name": "markup",
          "type": "uint256"
        },
        {
          "internalType": "address",
          "name": "owner",
          "type": "address"
        }
      ],
      "payable": false,
      "stateMutability": "view",
      "type": "function"
    },
    {
      "constant": true,
      "inputs": [],
      "name": "numBuyers",
      "outputs": [
        {
          "internalType": "uint256",
          "name": "",
          "type": "uint256"
        }
      ],
      "payable": false,
      "stateMutability": "view",
      "type": "function"
    },
    {
      "constant": true,
      "inputs": [],
      "name": "numSellers",
      "outputs": [
        {
          "internalType": "uint256",
          "name": "",
          "type": "uint256"
        }
      ],
      "payable": false,
      "stateMutability": "view",
      "type": "function"
    },
    {
      "constant": true,
      "inputs": [
        {
          "internalType": "uint256",
          "name": "",
          "type": "uint256"
        }
      ],
      "name": "sellers",
      "outputs": [
        {
          "internalType": "string",
          "name": "latitude",
          "type": "string"
        },
        {
          "internalType": "string",
          "name": "longitude",
          "type": "string"
        },
        {
          "internalType": "string",
          "name": "description",
          "type": "string"
        },
        {
          "internalType": "string",
          "name": "title",
          "type": "string"
        },
        {
          "internalType": "string",
          "name": "cityName",
          "type": "string"
        },
        {
          "internalType": "uint256",
          "name": "lastAccess",
          "type": "uint256"
        },
        {
          "internalType": "uint256",
          "name": "markup",
          "type": "uint256"
        },
        {
          "internalType": "address",
          "name": "owner",
          "type": "address"
        }
      ],
      "payable": false,
      "stateMutability": "view",
      "type": "function"
    },
    {
      "constant": true,
      "inputs": [
        {
          "internalType": "uint256",
          "name": "id",
          "type": "uint256"
        }
      ],
      "name": "getBuyer",
      "outputs": [
        {
          "components": [
            {
              "internalType": "string",
              "name": "latitude",
              "type": "string"
            },
            {
              "internalType": "string",
              "name": "longitude",
              "type": "string"
            },
            {
              "internalType": "string",
              "name": "description",
              "type": "string"
            },
            {
              "internalType": "string",
              "name": "title",
              "type": "string"
            },
            {
              "internalType": "string",
              "name": "cityName",
              "type": "string"
            },
            {
              "internalType": "uint256",
              "name": "lastAccess",
              "type": "uint256"
            },
            {
              "internalType": "uint256",
              "name": "markup",
              "type": "uint256"
            },
            {
              "internalType": "address",
              "name": "owner",
              "type": "address"
            }
          ],
          "internalType": "struct Coin2Cash.User",
          "name": "",
          "type": "tuple"
        }
      ],
      "payable": false,
      "stateMutability": "view",
      "type": "function"
    },
    {
      "constant": true,
      "inputs": [
        {
          "internalType": "uint256",
          "name": "id",
          "type": "uint256"
        }
      ],
      "name": "getSeller",
      "outputs": [
        {
          "components": [
            {
              "internalType": "string",
              "name": "latitude",
              "type": "string"
            },
            {
              "internalType": "string",
              "name": "longitude",
              "type": "string"
            },
            {
              "internalType": "string",
              "name": "description",
              "type": "string"
            },
            {
              "internalType": "string",
              "name": "title",
              "type": "string"
            },
            {
              "internalType": "string",
              "name": "cityName",
              "type": "string"
            },
            {
              "internalType": "uint256",
              "name": "lastAccess",
              "type": "uint256"
            },
            {
              "internalType": "uint256",
              "name": "markup",
              "type": "uint256"
            },
            {
              "internalType": "address",
              "name": "owner",
              "type": "address"
            }
          ],
          "internalType": "struct Coin2Cash.User",
          "name": "",
          "type": "tuple"
        }
      ],
      "payable": false,
      "stateMutability": "view",
      "type": "function"
    },
    {
      "constant": false,
      "inputs": [
        {
          "internalType": "string",
          "name": "latitude",
          "type": "string"
        },
        {
          "internalType": "string",
          "name": "longitude",
          "type": "string"
        },
        {
          "internalType": "string",
          "name": "description",
          "type": "string"
        },
        {
          "internalType": "string",
          "name": "title",
          "type": "string"
        },
        {
          "internalType": "string",
          "name": "cityName",
          "type": "string"
        },
        {
          "internalType": "uint256",
          "name": "markup",
          "type": "uint256"
        }
      ],
      "name": "addSeller",
      "outputs": [
        {
          "internalType": "uint256",
          "name": "",
          "type": "uint256"
        }
      ],
      "payable": false,
      "stateMutability": "nonpayable",
      "type": "function"
    },
    {
      "constant": false,
      "inputs": [
        {
          "internalType": "string",
          "name": "latitude",
          "type": "string"
        },
        {
          "internalType": "string",
          "name": "longitude",
          "type": "string"
        },
        {
          "internalType": "string",
          "name": "description",
          "type": "string"
        },
        {
          "internalType": "string",
          "name": "title",
          "type": "string"
        },
        {
          "internalType": "string",
          "name": "cityName",
          "type": "string"
        },
        {
          "internalType": "uint256",
          "name": "markup",
          "type": "uint256"
        }
      ],
      "name": "addBuyer",
      "outputs": [
        {
          "internalType": "uint256",
          "name": "",
          "type": "uint256"
        }
      ],
      "payable": false,
      "stateMutability": "nonpayable",
      "type": "function"
    },
    {
      "constant": false,
      "inputs": [
        {
          "internalType": "uint256",
          "name": "id",
          "type": "uint256"
        }
      ],
      "name": "removeSeller",
      "outputs": [],
      "payable": false,
      "stateMutability": "nonpayable",
      "type": "function"
    },
    {
      "constant": false,
      "inputs": [
        {
          "internalType": "uint256",
          "name": "id",
          "type": "uint256"
        }
      ],
      "name": "removeBuyer",
      "outputs": [],
      "payable": false,
      "stateMutability": "nonpayable",
      "type": "function"
    },
    {
      "constant": false,
      "inputs": [
        {
          "internalType": "uint256",
          "name": "id",
          "type": "uint256"
        }
      ],
      "name": "reactivateSeller",
      "outputs": [],
      "payable": false,
      "stateMutability": "nonpayable",
      "type": "function"
    },
    {
      "constant": false,
      "inputs": [
        {
          "internalType": "uint256",
          "name": "id",
          "type": "uint256"
        }
      ],
      "name": "reactivateBuyer",
      "outputs": [],
      "payable": false,
      "stateMutability": "nonpayable",
      "type": "function"
    }
  ],
  "bytecode": "0x608060405260008055600060015534801561001957600080fd5b50612fc0806100296000396000f3fe608060405234801561001057600080fd5b50600436106100b45760003560e01c8063b5427b9811610071578063b5427b981461019f578063c31417fa146101bb578063cee26ed5146101d7578063d6a9de511461020e578063ee177bc31461023e578063f2aa82181461025c576100b4565b806335c3906c146100b95780633bf5d548146100d55780633e919980146100f15780635bf608b81461010f57806379ba7f731461013f578063b3c4e02b1461016f575b600080fd5b6100d360048036036100ce9190810190612bd0565b610293565b005b6100ef60048036036100ea9190810190612bd0565b6107ab565b005b6100f9610cc2565b6040516101069190612e36565b60405180910390f35b61012960048036036101249190810190612bd0565b610cc8565b6040516101369190612e14565b60405180910390f35b61015960048036036101549190810190612acf565b611099565b6040516101669190612e36565b60405180910390f35b61018960048036036101849190810190612acf565b611253565b6040516101969190612e36565b60405180910390f35b6101b960048036036101b49190810190612bd0565b61140f565b005b6101d560048036036101d09190810190612bd0565b61194b565b005b6101f160048036036101ec9190810190612bd0565b611e87565b604051610205989796959493929190612d73565b60405180910390f35b61022860048036036102239190810190612bd0565b6121e7565b6040516102359190612e14565b60405180910390f35b6102466125b8565b6040516102539190612e36565b60405180910390f35b61027660048036036102719190810190612bd0565b6125be565b60405161028a989796959493929190612d73565b60405180910390f35b3373ffffffffffffffffffffffffffffffffffffffff166003600083815260200190815260200160002060070160009054906101000a900473ffffffffffffffffffffffffffffffffffffffff1673ffffffffffffffffffffffffffffffffffffffff161461030157600080fd5b61030961291e565b6003600083815260200190815260200160002060405180610100016040529081600082018054600181600116156101000203166002900480601f0160208091040260200160405190810160405280929190818152602001828054600181600116156101000203166002900480156103c15780601f10610396576101008083540402835291602001916103c1565b820191906000526020600020905b8154815290600101906020018083116103a457829003601f168201915b50505050508152602001600182018054600181600116156101000203166002900480601f0160208091040260200160405190810160405280929190818152602001828054600181600116156101000203166002900480156104635780601f1061043857610100808354040283529160200191610463565b820191906000526020600020905b81548152906001019060200180831161044657829003601f168201915b50505050508152602001600282018054600181600116156101000203166002900480601f0160208091040260200160405190810160405280929190818152602001828054600181600116156101000203166002900480156105055780601f106104da57610100808354040283529160200191610505565b820191906000526020600020905b8154815290600101906020018083116104e857829003601f168201915b50505050508152602001600382018054600181600116156101000203166002900480601f0160208091040260200160405190810160405280929190818152602001828054600181600116156101000203166002900480156105a75780601f1061057c576101008083540402835291602001916105a7565b820191906000526020600020905b81548152906001019060200180831161058a57829003601f168201915b50505050508152602001600482018054600181600116156101000203166002900480601f0160208091040260200160405190810160405280929190818152602001828054600181600116156101000203166002900480156106495780601f1061061e57610100808354040283529160200191610649565b820191906000526020600020905b81548152906001019060200180831161062c57829003601f168201915b5050505050815260200160058201548152602001600682015481526020016007820160009054906101000a900473ffffffffffffffffffffffffffffffffffffffff1673ffffffffffffffffffffffffffffffffffffffff1673ffffffffffffffffffffffffffffffffffffffff1681525050905060036000838152602001908152602001600020600080820160006106e29190612979565b6001820160006106f29190612979565b6002820160006107029190612979565b6003820160006107129190612979565b6004820160006107229190612979565b600582016000905560068201600090556007820160006101000a81549073ffffffffffffffffffffffffffffffffffffffff02191690555050600160008154809291906001900391905055507fe9ef0b7d08951915c57e3939d693b1b5a950a975bf321f0da51b79ff7f2f5b1f60015460405161079f9190612e36565b60405180910390a15050565b3373ffffffffffffffffffffffffffffffffffffffff166002600083815260200190815260200160002060070160009054906101000a900473ffffffffffffffffffffffffffffffffffffffff1673ffffffffffffffffffffffffffffffffffffffff161461081957600080fd5b61082161291e565b6002600083815260200190815260200160002060405180610100016040529081600082018054600181600116156101000203166002900480601f0160208091040260200160405190810160405280929190818152602001828054600181600116156101000203166002900480156108d95780601f106108ae576101008083540402835291602001916108d9565b820191906000526020600020905b8154815290600101906020018083116108bc57829003601f168201915b50505050508152602001600182018054600181600116156101000203166002900480601f01602080910402602001604051908101604052809291908181526020018280546001816001161561010002031660029004801561097b5780601f106109505761010080835404028352916020019161097b565b820191906000526020600020905b81548152906001019060200180831161095e57829003601f168201915b50505050508152602001600282018054600181600116156101000203166002900480601f016020809104026020016040519081016040528092919081815260200182805460018160011615610100020316600290048015610a1d5780601f106109f257610100808354040283529160200191610a1d565b820191906000526020600020905b815481529060010190602001808311610a0057829003601f168201915b50505050508152602001600382018054600181600116156101000203166002900480601f016020809104026020016040519081016040528092919081815260200182805460018160011615610100020316600290048015610abf5780601f10610a9457610100808354040283529160200191610abf565b820191906000526020600020905b815481529060010190602001808311610aa257829003601f168201915b50505050508152602001600482018054600181600116156101000203166002900480601f016020809104026020016040519081016040528092919081815260200182805460018160011615610100020316600290048015610b615780601f10610b3657610100808354040283529160200191610b61565b820191906000526020600020905b815481529060010190602001808311610b4457829003601f168201915b5050505050815260200160058201548152602001600682015481526020016007820160009054906101000a900473ffffffffffffffffffffffffffffffffffffffff1673ffffffffffffffffffffffffffffffffffffffff1673ffffffffffffffffffffffffffffffffffffffff168152505090506002600083815260200190815260200160002060008082016000610bfa9190612979565b600182016000610c0a9190612979565b600282016000610c1a9190612979565b600382016000610c2a9190612979565b600482016000610c3a9190612979565b600582016000905560068201600090556007820160006101000a81549073ffffffffffffffffffffffffffffffffffffffff021916905550506000808154809291906001900391905055507f63b7be9d8b9885fe5f65cd66b4e8156956cd6c09df2283ab19541344ffaec741600054604051610cb69190612e36565b60405180910390a15050565b60015481565b610cd061291e565b600154821115610cdf57600080fd5b6003600083815260200190815260200160002060405180610100016040529081600082018054600181600116156101000203166002900480601f016020809104026020016040519081016040528092919081815260200182805460018160011615610100020316600290048015610d975780601f10610d6c57610100808354040283529160200191610d97565b820191906000526020600020905b815481529060010190602001808311610d7a57829003601f168201915b50505050508152602001600182018054600181600116156101000203166002900480601f016020809104026020016040519081016040528092919081815260200182805460018160011615610100020316600290048015610e395780601f10610e0e57610100808354040283529160200191610e39565b820191906000526020600020905b815481529060010190602001808311610e1c57829003601f168201915b50505050508152602001600282018054600181600116156101000203166002900480601f016020809104026020016040519081016040528092919081815260200182805460018160011615610100020316600290048015610edb5780601f10610eb057610100808354040283529160200191610edb565b820191906000526020600020905b815481529060010190602001808311610ebe57829003601f168201915b50505050508152602001600382018054600181600116156101000203166002900480601f016020809104026020016040519081016040528092919081815260200182805460018160011615610100020316600290048015610f7d5780601f10610f5257610100808354040283529160200191610f7d565b820191906000526020600020905b815481529060010190602001808311610f6057829003601f168201915b50505050508152602001600482018054600181600116156101000203166002900480601f01602080910402602001604051908101604052809291908181526020018280546001816001161561010002031660029004801561101f5780601f10610ff45761010080835404028352916020019161101f565b820191906000526020600020905b81548152906001019060200180831161100257829003601f168201915b5050505050815260200160058201548152602001600682015481526020016007820160009054906101000a900473ffffffffffffffffffffffffffffffffffffffff1673ffffffffffffffffffffffffffffffffffffffff1673ffffffffffffffffffffffffffffffffffffffff16815250509050919050565b60006110a361291e565b6040518061010001604052808981526020018881526020018781526020018681526020018581526020014281526020018481526020013373ffffffffffffffffffffffffffffffffffffffff168152509050600080815480929190600101919050555080600260008054815260200190815260200160002060008201518160000190805190602001906111379291906129c1565b5060208201518160010190805190602001906111549291906129c1565b5060408201518160020190805190602001906111719291906129c1565b50606082015181600301908051906020019061118e9291906129c1565b5060808201518160040190805190602001906111ab9291906129c1565b5060a0820151816005015560c0820151816006015560e08201518160070160006101000a81548173ffffffffffffffffffffffffffffffffffffffff021916908373ffffffffffffffffffffffffffffffffffffffff1602179055509050507f71548304da75376a35bd2e3c0a6a430eec62e00768c923da903c81b4a6db058160005460405161123b9190612e36565b60405180910390a16000549150509695505050505050565b600061125d61291e565b6040518061010001604052808981526020018881526020018781526020018681526020018581526020014281526020018481526020013373ffffffffffffffffffffffffffffffffffffffff1681525090506001600081548092919060010191905055508060036000600154815260200190815260200160002060008201518160000190805190602001906112f39291906129c1565b5060208201518160010190805190602001906113109291906129c1565b50604082015181600201908051906020019061132d9291906129c1565b50606082015181600301908051906020019061134a9291906129c1565b5060808201518160040190805190602001906113679291906129c1565b5060a0820151816005015560c0820151816006015560e08201518160070160006101000a81548173ffffffffffffffffffffffffffffffffffffffff021916908373ffffffffffffffffffffffffffffffffffffffff1602179055509050507f89f47346c7f9b279fa1d15f7ffe7142a74f61be944a189b153ec716912af3fd26001546040516113f79190612e36565b60405180910390a16001549150509695505050505050565b3373ffffffffffffffffffffffffffffffffffffffff166002600083815260200190815260200160002060070160009054906101000a900473ffffffffffffffffffffffffffffffffffffffff1673ffffffffffffffffffffffffffffffffffffffff161461147d57600080fd5b61148561291e565b6002600083815260200190815260200160002060405180610100016040529081600082018054600181600116156101000203166002900480601f01602080910402602001604051908101604052809291908181526020018280546001816001161561010002031660029004801561153d5780601f106115125761010080835404028352916020019161153d565b820191906000526020600020905b81548152906001019060200180831161152057829003601f168201915b50505050508152602001600182018054600181600116156101000203166002900480601f0160208091040260200160405190810160405280929190818152602001828054600181600116156101000203166002900480156115df5780601f106115b4576101008083540402835291602001916115df565b820191906000526020600020905b8154815290600101906020018083116115c257829003601f168201915b50505050508152602001600282018054600181600116156101000203166002900480601f0160208091040260200160405190810160405280929190818152602001828054600181600116156101000203166002900480156116815780601f1061165657610100808354040283529160200191611681565b820191906000526020600020905b81548152906001019060200180831161166457829003601f168201915b50505050508152602001600382018054600181600116156101000203166002900480601f0160208091040260200160405190810160405280929190818152602001828054600181600116156101000203166002900480156117235780601f106116f857610100808354040283529160200191611723565b820191906000526020600020905b81548152906001019060200180831161170657829003601f168201915b50505050508152602001600482018054600181600116156101000203166002900480601f0160208091040260200160405190810160405280929190818152602001828054600181600116156101000203166002900480156117c55780601f1061179a576101008083540402835291602001916117c5565b820191906000526020600020905b8154815290600101906020018083116117a857829003601f168201915b5050505050815260200160058201548152602001600682015481526020016007820160009054906101000a900473ffffffffffffffffffffffffffffffffffffffff1673ffffffffffffffffffffffffffffffffffffffff1673ffffffffffffffffffffffffffffffffffffffff16815250509050428160a0018181525050806002600084815260200190815260200160002060008201518160000190805190602001906118749291906129c1565b5060208201518160010190805190602001906118919291906129c1565b5060408201518160020190805190602001906118ae9291906129c1565b5060608201518160030190805190602001906118cb9291906129c1565b5060808201518160040190805190602001906118e89291906129c1565b5060a0820151816005015560c0820151816006015560e08201518160070160006101000a81548173ffffffffffffffffffffffffffffffffffffffff021916908373ffffffffffffffffffffffffffffffffffffffff1602179055509050505050565b3373ffffffffffffffffffffffffffffffffffffffff166003600083815260200190815260200160002060070160009054906101000a900473ffffffffffffffffffffffffffffffffffffffff1673ffffffffffffffffffffffffffffffffffffffff16146119b957600080fd5b6119c161291e565b6003600083815260200190815260200160002060405180610100016040529081600082018054600181600116156101000203166002900480601f016020809104026020016040519081016040528092919081815260200182805460018160011615610100020316600290048015611a795780601f10611a4e57610100808354040283529160200191611a79565b820191906000526020600020905b815481529060010190602001808311611a5c57829003601f168201915b50505050508152602001600182018054600181600116156101000203166002900480601f016020809104026020016040519081016040528092919081815260200182805460018160011615610100020316600290048015611b1b5780601f10611af057610100808354040283529160200191611b1b565b820191906000526020600020905b815481529060010190602001808311611afe57829003601f168201915b50505050508152602001600282018054600181600116156101000203166002900480601f016020809104026020016040519081016040528092919081815260200182805460018160011615610100020316600290048015611bbd5780601f10611b9257610100808354040283529160200191611bbd565b820191906000526020600020905b815481529060010190602001808311611ba057829003601f168201915b50505050508152602001600382018054600181600116156101000203166002900480601f016020809104026020016040519081016040528092919081815260200182805460018160011615610100020316600290048015611c5f5780601f10611c3457610100808354040283529160200191611c5f565b820191906000526020600020905b815481529060010190602001808311611c4257829003601f168201915b50505050508152602001600482018054600181600116156101000203166002900480601f016020809104026020016040519081016040528092919081815260200182805460018160011615610100020316600290048015611d015780601f10611cd657610100808354040283529160200191611d01565b820191906000526020600020905b815481529060010190602001808311611ce457829003601f168201915b5050505050815260200160058201548152602001600682015481526020016007820160009054906101000a900473ffffffffffffffffffffffffffffffffffffffff1673ffffffffffffffffffffffffffffffffffffffff1673ffffffffffffffffffffffffffffffffffffffff16815250509050428160a001818152505080600360008481526020019081526020016000206000820151816000019080519060200190611db09291906129c1565b506020820151816001019080519060200190611dcd9291906129c1565b506040820151816002019080519060200190611dea9291906129c1565b506060820151816003019080519060200190611e079291906129c1565b506080820151816004019080519060200190611e249291906129c1565b5060a0820151816005015560c0820151816006015560e08201518160070160006101000a81548173ffffffffffffffffffffffffffffffffffffffff021916908373ffffffffffffffffffffffffffffffffffffffff1602179055509050505050565b6002602052806000526040600020600091509050806000018054600181600116156101000203166002900480601f016020809104026020016040519081016040528092919081815260200182805460018160011615610100020316600290048015611f335780601f10611f0857610100808354040283529160200191611f33565b820191906000526020600020905b815481529060010190602001808311611f1657829003601f168201915b505050505090806001018054600181600116156101000203166002900480601f016020809104026020016040519081016040528092919081815260200182805460018160011615610100020316600290048015611fd15780601f10611fa657610100808354040283529160200191611fd1565b820191906000526020600020905b815481529060010190602001808311611fb457829003601f168201915b505050505090806002018054600181600116156101000203166002900480601f01602080910402602001604051908101604052809291908181526020018280546001816001161561010002031660029004801561206f5780601f106120445761010080835404028352916020019161206f565b820191906000526020600020905b81548152906001019060200180831161205257829003601f168201915b505050505090806003018054600181600116156101000203166002900480601f01602080910402602001604051908101604052809291908181526020018280546001816001161561010002031660029004801561210d5780601f106120e25761010080835404028352916020019161210d565b820191906000526020600020905b8154815290600101906020018083116120f057829003601f168201915b505050505090806004018054600181600116156101000203166002900480601f0160208091040260200160405190810160405280929190818152602001828054600181600116156101000203166002900480156121ab5780601f10612180576101008083540402835291602001916121ab565b820191906000526020600020905b81548152906001019060200180831161218e57829003601f168201915b5050505050908060050154908060060154908060070160009054906101000a900473ffffffffffffffffffffffffffffffffffffffff16905088565b6121ef61291e565b6000548211156121fe57600080fd5b6002600083815260200190815260200160002060405180610100016040529081600082018054600181600116156101000203166002900480601f0160208091040260200160405190810160405280929190818152602001828054600181600116156101000203166002900480156122b65780601f1061228b576101008083540402835291602001916122b6565b820191906000526020600020905b81548152906001019060200180831161229957829003601f168201915b50505050508152602001600182018054600181600116156101000203166002900480601f0160208091040260200160405190810160405280929190818152602001828054600181600116156101000203166002900480156123585780601f1061232d57610100808354040283529160200191612358565b820191906000526020600020905b81548152906001019060200180831161233b57829003601f168201915b50505050508152602001600282018054600181600116156101000203166002900480601f0160208091040260200160405190810160405280929190818152602001828054600181600116156101000203166002900480156123fa5780601f106123cf576101008083540402835291602001916123fa565b820191906000526020600020905b8154815290600101906020018083116123dd57829003601f168201915b50505050508152602001600382018054600181600116156101000203166002900480601f01602080910402602001604051908101604052809291908181526020018280546001816001161561010002031660029004801561249c5780601f106124715761010080835404028352916020019161249c565b820191906000526020600020905b81548152906001019060200180831161247f57829003601f168201915b50505050508152602001600482018054600181600116156101000203166002900480601f01602080910402602001604051908101604052809291908181526020018280546001816001161561010002031660029004801561253e5780601f106125135761010080835404028352916020019161253e565b820191906000526020600020905b81548152906001019060200180831161252157829003601f168201915b5050505050815260200160058201548152602001600682015481526020016007820160009054906101000a900473ffffffffffffffffffffffffffffffffffffffff1673ffffffffffffffffffffffffffffffffffffffff1673ffffffffffffffffffffffffffffffffffffffff16815250509050919050565b60005481565b6003602052806000526040600020600091509050806000018054600181600116156101000203166002900480601f01602080910402602001604051908101604052809291908181526020018280546001816001161561010002031660029004801561266a5780601f1061263f5761010080835404028352916020019161266a565b820191906000526020600020905b81548152906001019060200180831161264d57829003601f168201915b505050505090806001018054600181600116156101000203166002900480601f0160208091040260200160405190810160405280929190818152602001828054600181600116156101000203166002900480156127085780601f106126dd57610100808354040283529160200191612708565b820191906000526020600020905b8154815290600101906020018083116126eb57829003601f168201915b505050505090806002018054600181600116156101000203166002900480601f0160208091040260200160405190810160405280929190818152602001828054600181600116156101000203166002900480156127a65780601f1061277b576101008083540402835291602001916127a6565b820191906000526020600020905b81548152906001019060200180831161278957829003601f168201915b505050505090806003018054600181600116156101000203166002900480601f0160208091040260200160405190810160405280929190818152602001828054600181600116156101000203166002900480156128445780601f1061281957610100808354040283529160200191612844565b820191906000526020600020905b81548152906001019060200180831161282757829003601f168201915b505050505090806004018054600181600116156101000203166002900480601f0160208091040260200160405190810160405280929190818152602001828054600181600116156101000203166002900480156128e25780601f106128b7576101008083540402835291602001916128e2565b820191906000526020600020905b8154815290600101906020018083116128c557829003601f168201915b5050505050908060050154908060060154908060070160009054906101000a900473ffffffffffffffffffffffffffffffffffffffff16905088565b60405180610100016040528060608152602001606081526020016060815260200160608152602001606081526020016000815260200160008152602001600073ffffffffffffffffffffffffffffffffffffffff1681525090565b50805460018160011615610100020316600290046000825580601f1061299f57506129be565b601f0160209004906000526020600020908101906129bd9190612a41565b5b50565b828054600181600116156101000203166002900490600052602060002090601f016020900481019282601f10612a0257805160ff1916838001178555612a30565b82800160010185558215612a30579182015b82811115612a2f578251825591602001919060010190612a14565b5b509050612a3d9190612a41565b5090565b612a6391905b80821115612a5f576000816000905550600101612a47565b5090565b90565b600082601f830112612a7757600080fd5b8135612a8a612a8582612e7e565b612e51565b91508082526020830160208301858383011115612aa657600080fd5b612ab1838284612f13565b50505092915050565b600081359050612ac981612f66565b92915050565b60008060008060008060c08789031215612ae857600080fd5b600087013567ffffffffffffffff811115612b0257600080fd5b612b0e89828a01612a66565b965050602087013567ffffffffffffffff811115612b2b57600080fd5b612b3789828a01612a66565b955050604087013567ffffffffffffffff811115612b5457600080fd5b612b6089828a01612a66565b945050606087013567ffffffffffffffff811115612b7d57600080fd5b612b8989828a01612a66565b935050608087013567ffffffffffffffff811115612ba657600080fd5b612bb289828a01612a66565b92505060a0612bc389828a01612aba565b9150509295509295509295565b600060208284031215612be257600080fd5b6000612bf084828501612aba565b91505092915050565b612c0281612ed7565b82525050565b612c1181612ed7565b82525050565b6000612c2282612eaa565b612c2c8185612eb5565b9350612c3c818560208601612f22565b612c4581612f55565b840191505092915050565b6000612c5b82612eaa565b612c658185612ec6565b9350612c75818560208601612f22565b612c7e81612f55565b840191505092915050565b6000610100830160008301518482036000860152612ca78282612c17565b91505060208301518482036020860152612cc18282612c17565b91505060408301518482036040860152612cdb8282612c17565b91505060608301518482036060860152612cf58282612c17565b91505060808301518482036080860152612d0f8282612c17565b91505060a0830151612d2460a0860182612d55565b5060c0830151612d3760c0860182612d55565b5060e0830151612d4a60e0860182612bf9565b508091505092915050565b612d5e81612f09565b82525050565b612d6d81612f09565b82525050565b6000610100820190508181036000830152612d8e818b612c50565b90508181036020830152612da2818a612c50565b90508181036040830152612db68189612c50565b90508181036060830152612dca8188612c50565b90508181036080830152612dde8187612c50565b9050612ded60a0830186612d64565b612dfa60c0830185612d64565b612e0760e0830184612c08565b9998505050505050505050565b60006020820190508181036000830152612e2e8184612c89565b905092915050565b6000602082019050612e4b6000830184612d64565b92915050565b6000604051905081810181811067ffffffffffffffff82111715612e7457600080fd5b8060405250919050565b600067ffffffffffffffff821115612e9557600080fd5b601f19601f8301169050602081019050919050565b600081519050919050565b600082825260208201905092915050565b600082825260208201905092915050565b6000612ee282612ee9565b9050919050565b600073ffffffffffffffffffffffffffffffffffffffff82169050919050565b6000819050919050565b82818337600083830152505050565b60005b83811015612f40578082015181840152602081019050612f25565b83811115612f4f576000848401525b50505050565b6000601f19601f8301169050919050565b612f6f81612f09565b8114612f7a57600080fd5b5056fea365627a7a7231582010c7da491a4a1697f78413966445c4dec254175133b4579dfff9335ff97f0cd66c6578706572696d656e74616cf564736f6c63430005100040",
  "source": "// SPDX-License-Identifier: MIT\n/* Want to tip the developer?\nSend eth to: 0xC0ef45535291D020309c7051ea26B7E36F2A41ff\n */\npragma solidity 0.5.16;\npragma experimental ABIEncoderV2;\n\n\ncontract Coin2Cash {\n  \n  uint public numSellers = 0;\n  uint public numBuyers = 0;\n  struct User {\n    string latitude;\n    string longitude;\n    string description;\n    string title;\n    string cityName;\n    uint256 lastAccess;\n    uint256 markup;\n    address owner;\n  }\n  mapping(uint256=>User) public sellers;\n  mapping(uint256=>User) public buyers;\n\n  event SellerAdded(uint256 id);\n  event BuyerAdded(uint256 id);\n  event SellerRemoved(uint256 id);\n  event BuyerRemoved(uint256 id);\n\n\n  function getBuyer(uint256 id) public view returns(User memory) {\n    require(id <= numBuyers);\n    return buyers[id];\n  }\n\nfunction getSeller(uint256 id) public view returns(User memory) {\n    require(id <= numSellers);\n    return sellers[id];\n  }\n\n  function addSeller (\n    string memory latitude, //multiplied by 7\n    string memory longitude,//multiplied by 7\n    string memory description,\n    string memory title,\n    string memory cityName,\n    uint256 markup\n  ) public returns (uint256){\n    User memory user;\n    user = User(latitude, longitude, description, title, cityName, block.timestamp, markup, msg.sender);\n    numSellers++;\n    sellers[numSellers] = user;\n    emit SellerAdded(numSellers);\n    return numSellers;\n  }\n\n  function addBuyer (\n    string memory latitude,\n    string memory longitude,\n    string memory description,\n    string memory title,\n    string memory cityName,\n    uint256 markup\n  ) public returns (uint256){\n    User memory user;\n    user = User(latitude, longitude, description, title, cityName, block.timestamp, markup, msg.sender);\n    numBuyers++;\n    buyers[numBuyers] = user;\n    emit BuyerAdded(numBuyers);\n    return numBuyers;\n  }\n\n  function removeSeller(uint256 id) public{\n    require(sellers[id].owner == msg.sender);// \"Your not the owner\"\n    User memory user;\n    user = sellers[id];\n    delete sellers[id];\n    numSellers--;\n    emit SellerRemoved(numSellers);\n  }\n\n  function removeBuyer(uint256 id) public{\n    require(buyers[id].owner == msg.sender);// \"Your not the owner\"\n    User memory user;\n    user = buyers[id];\n    delete buyers[id];\n    numBuyers--;\n    emit BuyerRemoved(numBuyers);\n  }\n\n  function reactivateSeller(uint256 id) public {\n    require(sellers[id].owner == msg.sender);// \"Your not the owner\"\n    User memory user;\n    user = sellers[id];\n    user.lastAccess = block.timestamp;\n    sellers[id] = user;\n  }\n\n  function reactivateBuyer(uint256 id) public {\n    require(buyers[id].owner == msg.sender);// \"Your not the owner\"\n    User memory user;\n    user = buyers[id];\n    user.lastAccess = block.timestamp;\n    buyers[id] = user;\n  }\n}\n",
  "sourcePath": "/Users/x/Projects/coin2cash/contracts/Coin2Cash.sol",
  "compiler": {
    "name": "solc",
    "version": "0.5.16+commit.9c3226ce.Emscripten.clang"
  },
  "schemaVersion": "3.2.5",
  "updatedAt": "2020-10-20T21:29:33.854Z",
  "devdoc": {
    "methods": {}
  },
  "userdoc": {
    "methods": {}
  }
}